{
  "_format": "hh-sol-artifact-1",
  "contractName": "RealEstate",
  "sourceName": "contracts/RealEstate.sol",
  "abi": [
    {
      "inputs": [],
      "stateMutability": "nonpayable",
      "type": "constructor"
    },
    {
      "inputs": [
        {
          "internalType": "string",
          "name": "name",
          "type": "string"
        },
        {
          "internalType": "string",
          "name": "city",
          "type": "string"
        },
        {
          "internalType": "string",
          "name": "price",
          "type": "string"
        },
        {
          "internalType": "string",
          "name": "imageUrl",
          "type": "string"
        }
      ],
      "name": "addProperty",
      "outputs": [],
      "stateMutability": "nonpayable",
      "type": "function"
    },
    {
      "inputs": [],
      "name": "getAllProperties",
      "outputs": [
        {
          "components": [
            {
              "internalType": "string",
              "name": "name",
              "type": "string"
            },
            {
              "internalType": "string",
              "name": "city",
              "type": "string"
            },
            {
              "internalType": "string",
              "name": "price",
              "type": "string"
            },
            {
              "internalType": "string",
              "name": "imageUrl",
              "type": "string"
            }
          ],
          "internalType": "struct RealEstate.Property[]",
          "name": "",
          "type": "tuple[]"
        }
      ],
      "stateMutability": "view",
      "type": "function"
    },
    {
      "inputs": [],
      "name": "getPropertyCount",
      "outputs": [
        {
          "internalType": "uint256",
          "name": "",
          "type": "uint256"
        }
      ],
      "stateMutability": "view",
      "type": "function"
    },
    {
      "inputs": [],
      "name": "owner",
      "outputs": [
        {
          "internalType": "address",
          "name": "",
          "type": "address"
        }
      ],
      "stateMutability": "view",
      "type": "function"
    },
    {
      "inputs": [
        {
          "internalType": "uint256",
          "name": "",
          "type": "uint256"
        }
      ],
      "name": "properties",
      "outputs": [
        {
          "internalType": "string",
          "name": "name",
          "type": "string"
        },
        {
          "internalType": "string",
          "name": "city",
          "type": "string"
        },
        {
          "internalType": "string",
          "name": "price",
          "type": "string"
        },
        {
          "internalType": "string",
          "name": "imageUrl",
          "type": "string"
        }
      ],
      "stateMutability": "view",
      "type": "function"
    }
  ],
  "bytecode": "0x608060405234801561001057600080fd5b5033600160006101000a81548173ffffffffffffffffffffffffffffffffffffffff021916908373ffffffffffffffffffffffffffffffffffffffff1602179055506110c6806100616000396000f3fe608060405234801561001057600080fd5b50600436106100575760003560e01c80633d51402c1461005c5780637326b9011461007a5780638da5cb5b14610098578063d81883ae146100b6578063f7b10808146100d2575b600080fd5b610064610105565b604051610071919061094a565b60405180910390f35b6100826103ac565b60405161008f9190610985565b60405180910390f35b6100a06103b8565b6040516100ad91906109e1565b60405180910390f35b6100d060048036038101906100cb9190610b45565b6103de565b005b6100ec60048036038101906100e79190610c48565b610520565b6040516100fc9493929190610cbf565b60405180910390f35b60606000805480602002602001604051908101604052809291908181526020016000905b828210156103a3578382906000526020600020906004020160405180608001604052908160008201805461015c90610d4f565b80601f016020809104026020016040519081016040528092919081815260200182805461018890610d4f565b80156101d55780601f106101aa576101008083540402835291602001916101d5565b820191906000526020600020905b8154815290600101906020018083116101b857829003601f168201915b505050505081526020016001820180546101ee90610d4f565b80601f016020809104026020016040519081016040528092919081815260200182805461021a90610d4f565b80156102675780601f1061023c57610100808354040283529160200191610267565b820191906000526020600020905b81548152906001019060200180831161024a57829003601f168201915b5050505050815260200160028201805461028090610d4f565b80601f01602080910402602001604051908101604052809291908181526020018280546102ac90610d4f565b80156102f95780601f106102ce576101008083540402835291602001916102f9565b820191906000526020600020905b8154815290600101906020018083116102dc57829003601f168201915b5050505050815260200160038201805461031290610d4f565b80601f016020809104026020016040519081016040528092919081815260200182805461033e90610d4f565b801561038b5780601f106103605761010080835404028352916020019161038b565b820191906000526020600020905b81548152906001019060200180831161036e57829003601f168201915b50505050508152505081526020019060010190610129565b50505050905090565b60008080549050905090565b600160009054906101000a900473ffffffffffffffffffffffffffffffffffffffff1681565b600160009054906101000a900473ffffffffffffffffffffffffffffffffffffffff1673ffffffffffffffffffffffffffffffffffffffff163373ffffffffffffffffffffffffffffffffffffffff161461046e576040517f08c379a000000000000000000000000000000000000000000000000000000000815260040161046590610df2565b60405180910390fd5b60006040518060800160405280868152602001858152602001848152602001838152509050600081908060018154018082558091505060019003906000526020600020906004020160009091909190915060008201518160000190816104d49190610fbe565b5060208201518160010190816104ea9190610fbe565b5060408201518160020190816105009190610fbe565b5060608201518160030190816105169190610fbe565b5050505050505050565b6000818154811061053057600080fd5b906000526020600020906004020160009150905080600001805461055390610d4f565b80601f016020809104026020016040519081016040528092919081815260200182805461057f90610d4f565b80156105cc5780601f106105a1576101008083540402835291602001916105cc565b820191906000526020600020905b8154815290600101906020018083116105af57829003601f168201915b5050505050908060010180546105e190610d4f565b80601f016020809104026020016040519081016040528092919081815260200182805461060d90610d4f565b801561065a5780601f1061062f5761010080835404028352916020019161065a565b820191906000526020600020905b81548152906001019060200180831161063d57829003601f168201915b50505050509080600201805461066f90610d4f565b80601f016020809104026020016040519081016040528092919081815260200182805461069b90610d4f565b80156106e85780601f106106bd576101008083540402835291602001916106e8565b820191906000526020600020905b8154815290600101906020018083116106cb57829003601f168201915b5050505050908060030180546106fd90610d4f565b80601f016020809104026020016040519081016040528092919081815260200182805461072990610d4f565b80156107765780601f1061074b57610100808354040283529160200191610776565b820191906000526020600020905b81548152906001019060200180831161075957829003601f168201915b5050505050905084565b600081519050919050565b600082825260208201905092915050565b6000819050602082019050919050565b600081519050919050565b600082825260208201905092915050565b60005b838110156107e65780820151818401526020810190506107cb565b60008484015250505050565b6000601f19601f8301169050919050565b600061080e826107ac565b61081881856107b7565b93506108288185602086016107c8565b610831816107f2565b840191505092915050565b600060808301600083015184820360008601526108598282610803565b915050602083015184820360208601526108738282610803565b9150506040830151848203604086015261088d8282610803565b915050606083015184820360608601526108a78282610803565b9150508091505092915050565b60006108c0838361083c565b905092915050565b6000602082019050919050565b60006108e082610780565b6108ea818561078b565b9350836020820285016108fc8561079c565b8060005b85811015610938578484038952815161091985826108b4565b9450610924836108c8565b925060208a01995050600181019050610900565b50829750879550505050505092915050565b6000602082019050818103600083015261096481846108d5565b905092915050565b6000819050919050565b61097f8161096c565b82525050565b600060208201905061099a6000830184610976565b92915050565b600073ffffffffffffffffffffffffffffffffffffffff82169050919050565b60006109cb826109a0565b9050919050565b6109db816109c0565b82525050565b60006020820190506109f660008301846109d2565b92915050565b6000604051905090565b600080fd5b600080fd5b600080fd5b600080fd5b7f4e487b7100000000000000000000000000000000000000000000000000000000600052604160045260246000fd5b610a52826107f2565b810181811067ffffffffffffffff82111715610a7157610a70610a1a565b5b80604052505050565b6000610a846109fc565b9050610a908282610a49565b919050565b600067ffffffffffffffff821115610ab057610aaf610a1a565b5b610ab9826107f2565b9050602081019050919050565b82818337600083830152505050565b6000610ae8610ae384610a95565b610a7a565b905082815260208101848484011115610b0457610b03610a15565b5b610b0f848285610ac6565b509392505050565b600082601f830112610b2c57610b2b610a10565b5b8135610b3c848260208601610ad5565b91505092915050565b60008060008060808587031215610b5f57610b5e610a06565b5b600085013567ffffffffffffffff811115610b7d57610b7c610a0b565b5b610b8987828801610b17565b945050602085013567ffffffffffffffff811115610baa57610ba9610a0b565b5b610bb687828801610b17565b935050604085013567ffffffffffffffff811115610bd757610bd6610a0b565b5b610be387828801610b17565b925050606085013567ffffffffffffffff811115610c0457610c03610a0b565b5b610c1087828801610b17565b91505092959194509250565b610c258161096c565b8114610c3057600080fd5b50565b600081359050610c4281610c1c565b92915050565b600060208284031215610c5e57610c5d610a06565b5b6000610c6c84828501610c33565b91505092915050565b600082825260208201905092915050565b6000610c91826107ac565b610c9b8185610c75565b9350610cab8185602086016107c8565b610cb4816107f2565b840191505092915050565b60006080820190508181036000830152610cd98187610c86565b90508181036020830152610ced8186610c86565b90508181036040830152610d018185610c86565b90508181036060830152610d158184610c86565b905095945050505050565b7f4e487b7100000000000000000000000000000000000000000000000000000000600052602260045260246000fd5b60006002820490506001821680610d6757607f821691505b602082108103610d7a57610d79610d20565b5b50919050565b7f4f6e6c79206f776e65722063616e20706572666f726d2074686973206163746960008201527f6f6e000000000000000000000000000000000000000000000000000000000000602082015250565b6000610ddc602283610c75565b9150610de782610d80565b604082019050919050565b60006020820190508181036000830152610e0b81610dcf565b9050919050565b60008190508160005260206000209050919050565b60006020601f8301049050919050565b600082821b905092915050565b600060088302610e747fffffffffffffffffffffffffffffffffffffffffffffffffffffffffffffffff82610e37565b610e7e8683610e37565b95508019841693508086168417925050509392505050565b6000819050919050565b6000610ebb610eb6610eb18461096c565b610e96565b61096c565b9050919050565b6000819050919050565b610ed583610ea0565b610ee9610ee182610ec2565b848454610e44565b825550505050565b600090565b610efe610ef1565b610f09818484610ecc565b505050565b5b81811015610f2d57610f22600082610ef6565b600181019050610f0f565b5050565b601f821115610f7257610f4381610e12565b610f4c84610e27565b81016020851015610f5b578190505b610f6f610f6785610e27565b830182610f0e565b50505b505050565b600082821c905092915050565b6000610f9560001984600802610f77565b1980831691505092915050565b6000610fae8383610f84565b9150826002028217905092915050565b610fc7826107ac565b67ffffffffffffffff811115610fe057610fdf610a1a565b5b610fea8254610d4f565b610ff5828285610f31565b600060209050601f8311600181146110285760008415611016578287015190505b6110208582610fa2565b865550611088565b601f19841661103686610e12565b60005b8281101561105e57848901518255600182019150602085019450602081019050611039565b8683101561107b5784890151611077601f891682610f84565b8355505b6001600288020188555050505b50505050505056fea2646970667358221220731531e5b94559bf3399e37b65133a2c0466ec31f42abcda9acbd2ca7ea7ee6764736f6c63430008140033",
  "linkReferences": {},
  "deployedLinkReferences": {}
}