{
  "_format": "hh-sol-artifact-1",
  "contractName": "RealEstate",
  "sourceName": "contracts/RealEstate.sol",
  "abi": [
    {
      "inputs": [],
      "stateMutability": "nonpayable",
      "type": "constructor"
    },
    {
      "inputs": [
        {
          "internalType": "string",
          "name": "name",
          "type": "string"
        },
        {
          "internalType": "string",
          "name": "city",
          "type": "string"
        },
        {
          "internalType": "string",
          "name": "price",
          "type": "string"
        },
        {
          "internalType": "string",
          "name": "imageUrl",
          "type": "string"
        },
        {
          "internalType": "string",
          "name": "description",
          "type": "string"
        },
        {
          "internalType": "uint8",
          "name": "propertyType",
          "type": "uint8"
        }
      ],
      "name": "addProperty",
      "outputs": [],
      "stateMutability": "nonpayable",
      "type": "function"
    },
    {
      "inputs": [],
      "name": "getAllProperties",
      "outputs": [
        {
          "components": [
            {
              "internalType": "string",
              "name": "name",
              "type": "string"
            },
            {
              "internalType": "string",
              "name": "city",
              "type": "string"
            },
            {
              "internalType": "string",
              "name": "price",
              "type": "string"
            },
            {
              "internalType": "string",
              "name": "imageUrl",
              "type": "string"
            },
            {
              "internalType": "string",
              "name": "description",
              "type": "string"
            },
            {
              "internalType": "enum RealEstate.PropertyType",
              "name": "propertyType",
              "type": "uint8"
            },
            {
              "internalType": "address",
              "name": "owner",
              "type": "address"
            }
          ],
          "internalType": "struct RealEstate.Property[]",
          "name": "",
          "type": "tuple[]"
        }
      ],
      "stateMutability": "view",
      "type": "function"
    },
    {
      "inputs": [],
      "name": "getPropertyCount",
      "outputs": [
        {
          "internalType": "uint256",
          "name": "",
          "type": "uint256"
        }
      ],
      "stateMutability": "view",
      "type": "function"
    },
    {
      "inputs": [],
      "name": "owner",
      "outputs": [
        {
          "internalType": "address",
          "name": "",
          "type": "address"
        }
      ],
      "stateMutability": "view",
      "type": "function"
    },
    {
      "inputs": [
        {
          "internalType": "uint256",
          "name": "",
          "type": "uint256"
        }
      ],
      "name": "properties",
      "outputs": [
        {
          "internalType": "string",
          "name": "name",
          "type": "string"
        },
        {
          "internalType": "string",
          "name": "city",
          "type": "string"
        },
        {
          "internalType": "string",
          "name": "price",
          "type": "string"
        },
        {
          "internalType": "string",
          "name": "imageUrl",
          "type": "string"
        },
        {
          "internalType": "string",
          "name": "description",
          "type": "string"
        },
        {
          "internalType": "enum RealEstate.PropertyType",
          "name": "propertyType",
          "type": "uint8"
        },
        {
          "internalType": "address",
          "name": "owner",
          "type": "address"
        }
      ],
      "stateMutability": "view",
      "type": "function"
    }
  ],
  "bytecode": "0x608060405234801561001057600080fd5b5033600160006101000a81548173ffffffffffffffffffffffffffffffffffffffff021916908373ffffffffffffffffffffffffffffffffffffffff1602179055506115d9806100616000396000f3fe608060405234801561001057600080fd5b50600436106100575760003560e01c80633d51402c1461005c5780637326b9011461007a5780638da5cb5b14610098578063db0b4cb5146100b6578063f7b10808146100d2575b600080fd5b610064610108565b6040516100719190610d68565b60405180910390f35b6100826104d2565b60405161008f9190610da3565b60405180910390f35b6100a06104de565b6040516100ad9190610dcd565b60405180910390f35b6100d060048036038101906100cb9190610f6a565b610504565b005b6100ec60048036038101906100e791906110af565b61077f565b6040516100ff9796959493929190611135565b60405180910390f35b60606000805480602002602001604051908101604052809291908181526020016000905b828210156104c957838290600052602060002090600602016040518060e001604052908160008201805461015f906111f6565b80601f016020809104026020016040519081016040528092919081815260200182805461018b906111f6565b80156101d85780601f106101ad576101008083540402835291602001916101d8565b820191906000526020600020905b8154815290600101906020018083116101bb57829003601f168201915b505050505081526020016001820180546101f1906111f6565b80601f016020809104026020016040519081016040528092919081815260200182805461021d906111f6565b801561026a5780601f1061023f5761010080835404028352916020019161026a565b820191906000526020600020905b81548152906001019060200180831161024d57829003601f168201915b50505050508152602001600282018054610283906111f6565b80601f01602080910402602001604051908101604052809291908181526020018280546102af906111f6565b80156102fc5780601f106102d1576101008083540402835291602001916102fc565b820191906000526020600020905b8154815290600101906020018083116102df57829003601f168201915b50505050508152602001600382018054610315906111f6565b80601f0160208091040260200160405190810160405280929190818152602001828054610341906111f6565b801561038e5780601f106103635761010080835404028352916020019161038e565b820191906000526020600020905b81548152906001019060200180831161037157829003601f168201915b505050505081526020016004820180546103a7906111f6565b80601f01602080910402602001604051908101604052809291908181526020018280546103d3906111f6565b80156104205780601f106103f557610100808354040283529160200191610420565b820191906000526020600020905b81548152906001019060200180831161040357829003601f168201915b505050505081526020016005820160009054906101000a900460ff16600381111561044e5761044d610b62565b5b60038111156104605761045f610b62565b5b81526020016005820160019054906101000a900473ffffffffffffffffffffffffffffffffffffffff1673ffffffffffffffffffffffffffffffffffffffff1673ffffffffffffffffffffffffffffffffffffffff16815250508152602001906001019061012c565b50505050905090565b60008080549050905090565b600160009054906101000a900473ffffffffffffffffffffffffffffffffffffffff1681565b600160009054906101000a900473ffffffffffffffffffffffffffffffffffffffff1673ffffffffffffffffffffffffffffffffffffffff163373ffffffffffffffffffffffffffffffffffffffff1614610594576040517f08c379a000000000000000000000000000000000000000000000000000000000815260040161058b90611299565b60405180910390fd5b6003808111156105a7576105a6610b62565b5b60ff168160ff1611156105ef576040517f08c379a00000000000000000000000000000000000000000000000000000000081526004016105e690611305565b60405180910390fd5b60006040518060e001604052808881526020018781526020018681526020018581526020018481526020018360ff1660038111156106305761062f610b62565b5b600381111561064257610641610b62565b5b81526020013373ffffffffffffffffffffffffffffffffffffffff168152509050600081908060018154018082558091505060019003906000526020600020906006020160009091909190915060008201518160000190816106a491906114d1565b5060208201518160010190816106ba91906114d1565b5060408201518160020190816106d091906114d1565b5060608201518160030190816106e691906114d1565b5060808201518160040190816106fc91906114d1565b5060a08201518160050160006101000a81548160ff0219169083600381111561072857610727610b62565b5b021790555060c08201518160050160016101000a81548173ffffffffffffffffffffffffffffffffffffffff021916908373ffffffffffffffffffffffffffffffffffffffff160217905550505050505050505050565b6000818154811061078f57600080fd5b90600052602060002090600602016000915090508060000180546107b2906111f6565b80601f01602080910402602001604051908101604052809291908181526020018280546107de906111f6565b801561082b5780601f106108005761010080835404028352916020019161082b565b820191906000526020600020905b81548152906001019060200180831161080e57829003601f168201915b505050505090806001018054610840906111f6565b80601f016020809104026020016040519081016040528092919081815260200182805461086c906111f6565b80156108b95780601f1061088e576101008083540402835291602001916108b9565b820191906000526020600020905b81548152906001019060200180831161089c57829003601f168201915b5050505050908060020180546108ce906111f6565b80601f01602080910402602001604051908101604052809291908181526020018280546108fa906111f6565b80156109475780601f1061091c57610100808354040283529160200191610947565b820191906000526020600020905b81548152906001019060200180831161092a57829003601f168201915b50505050509080600301805461095c906111f6565b80601f0160208091040260200160405190810160405280929190818152602001828054610988906111f6565b80156109d55780601f106109aa576101008083540402835291602001916109d5565b820191906000526020600020905b8154815290600101906020018083116109b857829003601f168201915b5050505050908060040180546109ea906111f6565b80601f0160208091040260200160405190810160405280929190818152602001828054610a16906111f6565b8015610a635780601f10610a3857610100808354040283529160200191610a63565b820191906000526020600020905b815481529060010190602001808311610a4657829003601f168201915b5050505050908060050160009054906101000a900460ff16908060050160019054906101000a900473ffffffffffffffffffffffffffffffffffffffff16905087565b600081519050919050565b600082825260208201905092915050565b6000819050602082019050919050565b600081519050919050565b600082825260208201905092915050565b60005b83811015610b0c578082015181840152602081019050610af1565b60008484015250505050565b6000601f19601f8301169050919050565b6000610b3482610ad2565b610b3e8185610add565b9350610b4e818560208601610aee565b610b5781610b18565b840191505092915050565b7f4e487b7100000000000000000000000000000000000000000000000000000000600052602160045260246000fd5b60048110610ba257610ba1610b62565b5b50565b6000819050610bb382610b91565b919050565b6000610bc382610ba5565b9050919050565b610bd381610bb8565b82525050565b600073ffffffffffffffffffffffffffffffffffffffff82169050919050565b6000610c0482610bd9565b9050919050565b610c1481610bf9565b82525050565b600060e0830160008301518482036000860152610c378282610b29565b91505060208301518482036020860152610c518282610b29565b91505060408301518482036040860152610c6b8282610b29565b91505060608301518482036060860152610c858282610b29565b91505060808301518482036080860152610c9f8282610b29565b91505060a0830151610cb460a0860182610bca565b5060c0830151610cc760c0860182610c0b565b508091505092915050565b6000610cde8383610c1a565b905092915050565b6000602082019050919050565b6000610cfe82610aa6565b610d088185610ab1565b935083602082028501610d1a85610ac2565b8060005b85811015610d565784840389528151610d378582610cd2565b9450610d4283610ce6565b925060208a01995050600181019050610d1e565b50829750879550505050505092915050565b60006020820190508181036000830152610d828184610cf3565b905092915050565b6000819050919050565b610d9d81610d8a565b82525050565b6000602082019050610db86000830184610d94565b92915050565b610dc781610bf9565b82525050565b6000602082019050610de26000830184610dbe565b92915050565b6000604051905090565b600080fd5b600080fd5b600080fd5b600080fd5b7f4e487b7100000000000000000000000000000000000000000000000000000000600052604160045260246000fd5b610e3e82610b18565b810181811067ffffffffffffffff82111715610e5d57610e5c610e06565b5b80604052505050565b6000610e70610de8565b9050610e7c8282610e35565b919050565b600067ffffffffffffffff821115610e9c57610e9b610e06565b5b610ea582610b18565b9050602081019050919050565b82818337600083830152505050565b6000610ed4610ecf84610e81565b610e66565b905082815260208101848484011115610ef057610eef610e01565b5b610efb848285610eb2565b509392505050565b600082601f830112610f1857610f17610dfc565b5b8135610f28848260208601610ec1565b91505092915050565b600060ff82169050919050565b610f4781610f31565b8114610f5257600080fd5b50565b600081359050610f6481610f3e565b92915050565b60008060008060008060c08789031215610f8757610f86610df2565b5b600087013567ffffffffffffffff811115610fa557610fa4610df7565b5b610fb189828a01610f03565b965050602087013567ffffffffffffffff811115610fd257610fd1610df7565b5b610fde89828a01610f03565b955050604087013567ffffffffffffffff811115610fff57610ffe610df7565b5b61100b89828a01610f03565b945050606087013567ffffffffffffffff81111561102c5761102b610df7565b5b61103889828a01610f03565b935050608087013567ffffffffffffffff81111561105957611058610df7565b5b61106589828a01610f03565b92505060a061107689828a01610f55565b9150509295509295509295565b61108c81610d8a565b811461109757600080fd5b50565b6000813590506110a981611083565b92915050565b6000602082840312156110c5576110c4610df2565b5b60006110d38482850161109a565b91505092915050565b600082825260208201905092915050565b60006110f882610ad2565b61110281856110dc565b9350611112818560208601610aee565b61111b81610b18565b840191505092915050565b61112f81610bb8565b82525050565b600060e082019050818103600083015261114f818a6110ed565b9050818103602083015261116381896110ed565b9050818103604083015261117781886110ed565b9050818103606083015261118b81876110ed565b9050818103608083015261119f81866110ed565b90506111ae60a0830185611126565b6111bb60c0830184610dbe565b98975050505050505050565b7f4e487b7100000000000000000000000000000000000000000000000000000000600052602260045260246000fd5b6000600282049050600182168061120e57607f821691505b602082108103611221576112206111c7565b5b50919050565b7f4f6e6c79206f776e65722063616e20706572666f726d2074686973206163746960008201527f6f6e000000000000000000000000000000000000000000000000000000000000602082015250565b60006112836022836110dc565b915061128e82611227565b604082019050919050565b600060208201905081810360008301526112b281611276565b9050919050565b7f496e76616c69642070726f706572747920747970650000000000000000000000600082015250565b60006112ef6015836110dc565b91506112fa826112b9565b602082019050919050565b6000602082019050818103600083015261131e816112e2565b9050919050565b60008190508160005260206000209050919050565b60006020601f8301049050919050565b600082821b905092915050565b6000600883026113877fffffffffffffffffffffffffffffffffffffffffffffffffffffffffffffffff8261134a565b611391868361134a565b95508019841693508086168417925050509392505050565b6000819050919050565b60006113ce6113c96113c484610d8a565b6113a9565b610d8a565b9050919050565b6000819050919050565b6113e8836113b3565b6113fc6113f4826113d5565b848454611357565b825550505050565b600090565b611411611404565b61141c8184846113df565b505050565b5b8181101561144057611435600082611409565b600181019050611422565b5050565b601f8211156114855761145681611325565b61145f8461133a565b8101602085101561146e578190505b61148261147a8561133a565b830182611421565b50505b505050565b600082821c905092915050565b60006114a86000198460080261148a565b1980831691505092915050565b60006114c18383611497565b9150826002028217905092915050565b6114da82610ad2565b67ffffffffffffffff8111156114f3576114f2610e06565b5b6114fd82546111f6565b611508828285611444565b600060209050601f83116001811461153b5760008415611529578287015190505b61153385826114b5565b86555061159b565b601f19841661154986611325565b60005b828110156115715784890151825560018201915060208501945060208101905061154c565b8683101561158e578489015161158a601f891682611497565b8355505b6001600288020188555050505b50505050505056fea2646970667358221220a2d6e51e6a2299d876b365db9c971ba3ecb5d397b8b8af36d82acf60c66256e064736f6c63430008140033",
  "linkReferences": {},
  "deployedLinkReferences": {}
}